:020000020000FC
:100000000C94CD0C18951895189518951895189569
:100010001895189518951895189518951895189578
:100020001895189518951895189518951895189568
:100030001895189518951895189518951895189558
:100040001895189518951895189518951895189548
:10005000189518950C949F0518951895189518954E
:100060000C94E005189518953E4141413E44427F6D
:10007000404042615149462141454B311814127F9D
:100080001027454545393C4A494930017109050366
:100090003649494936064949291E7E1111117E7F8C
:1000A000494949363E414141227F4141413E7F49D4
:1000B0004949497F090909090000000000080808AA
:1000C00008080000363600000007050724243F24F6
:1000D0002423130864627F0808087F00417F4100E1
:1000E0007F0618067F7F0608307F7F090909067F93
:1000F00009091966264949493201017F01013F403A
:1001000040403F3F403E403F08083E0808AED59083
:10011000A83FD300408D14A1C8DA1281B0D922DBE8
:1001200030A4A6AF200021007F2200070100AF0805
:1001300009009807A907BA07E2070A083208400829
:1001400068088F080100D8090900DD08EE08FF08DB
:10015000230947096B0979099B09BC090E94800D95
:1001600080E0883050F410E0282F30E0F901EC5D99
:10017000FE4F049145D08395F4CF90E09830E8F598
:1001800080E08038C0F5082F0770A02FA23070F1F2
:10019000A73060F50091C001002341F111E0B12FBB
:1001A00006E610E02A2F30E0020F131F2801492F26
:1001B00050E000E110E00E94DF0CE0E4F1E0E00F2D
:1001C000F11F082F06950695069510E0E00FF11F28
:1001D000408150E005E010E00E94DF0CF201E00FEA
:1001E000F11F0491000F1B2F0BD003C011E000E0A2
:1001F00007D08395C6CF9395C1CFE6E00C94890DC7
:10020000302F512F552311F02A9A01C02A985F9858
:1002100027E02F3F81F02898422F01E010E00E9454
:10022000E70C132F1023112311F0299A01C02998EC
:10023000289A2A95EECF5F9A08950E947E0DA0E03D
:10024000A43008F006C10A2F10E0000F111FF801BA
:10025000EB50FE4F00811181280104E6401600E0BA
:1002600050060CF067C008ED40160FEF50060CF476
:1002700061C093E14A2F50E000E110E00E94DF0CE2
:10028000F801E05CFE4F96879CE04A2F50E000E1C9
:1002900010E00E94DF0CF801E05CFE4F97874A2FC8
:1002A00001E010E00E94E70CE3EDF1E01081102B7B
:1002B0001083552092F44094509401E0400E00E0E9
:1002C000501E91E14A2F50E000E110E00E94DF0C47
:1002D000F801E05CFE4F93870BC090E14A2F50E09D
:1002E00000E110E00E94DF0CF801E05CFE4F938714
:1002F00080E00AE0401600E0500634F006EF400EC1
:100300000FEF501E8395F5CF4A2F50E000E110E02B
:100310000E94DF0CF801E05CFE4F8487942D4A2F89
:1003200050E000E110E00E94DF0CF801E05CFE4FBD
:1003300095878DC04A2F01E010E00E94E70C0095E0
:10034000E3EDF1E010811023108390E14A2F50E09B
:1003500000E110E00E94DF0CF801E05CFE4F9687A0
:1003600090E14A2F50E000E110E00E94DF0CF8011C
:10037000E05CFE4F978704E6401600E05006B4F0BC
:1003800090E04A2F50E000E110E00E94DF0CF801FD
:10039000E05CFE4F948796E14A2F50E000E110E0C8
:1003A0000E94DF0CF801E05CFE4F95870DED4016D2
:1003B00000E05006B4F099E14A2F50E000E110E06F
:1003C0000E94DF0CF801E05CFE4F94879CE04A2F0E
:1003D00050E000E110E00E94DF0CF801E05CFE4F0D
:1003E000958708ED40160FEF5006B4F490E04A2FC1
:1003F00050E000E110E00E94DF0CF801E05CFE4FED
:1004000094879CE04A2F50E000E110E00E94DF0C4E
:10041000F801E05CFE4F958703E540160FEF5006AC
:10042000B4F49CE14A2F50E000E110E00E94DF0CA0
:10043000F801E05CFE4F94879CE04A2F50E000E119
:1004400010E00E94DF0CF801E05CFE4F9587A39559
:10045000F7CE0091E701802F0091D101053061F4C2
:10046000E2EDF1E0008101FF07C000E10093AE0181
:1004700000E10093AF010CC0082F007705950595AA
:10048000059505950093AE01082F0F700093AF01FD
:1004900087FB26F401E00093D00103C000E0009345
:1004A000D0010091E801802F0091D101043061F466
:1004B000E2EDF1E0008101FF07C000E10093AB0134
:1004C00000E10093AC010CC0082F0077059505955D
:1004D000059505950093AB01082F0F700093AC01B3
:1004E0000091E901802F0091D101033091F4E2EDF8
:1004F000F1E0008101FF0DC000E10093A60100E1E1
:100500000093A70100E10093A80100E10093A90175
:1005100026C0082F0F700093A90186FBAEF4082FA8
:10052000007105950595059505950093A80108E1CD
:100530000093A70185FB26F40AE10093A6010FC0F2
:100540000AE00093A6010BC0082F02950F700093DC
:10055000A80100E10093A70100E10093A60100912A
:10056000EA01802F0091D101063079F4E2EDF1E04B
:10057000008101FF0AC000E10093B10100E1009396
:10058000B20100E10093B3015FC0082F015069F090
:100590000A95A9F00A95E9F00A9529F10A9569F1F9
:1005A0000A95A9F10A95E9F146C008E10093B10165
:1005B00000E00093B20109E10093B30145C00DE1F1
:1005C0000093B1010EE10093B2010EE00093B3017C
:1005D0003BC00FE10093B1010EE00093B2010DE0CA
:1005E0000093B30131C00DE10093B10106E1009326
:1005F000B2010EE10093B30127C00FE00093B101F7
:100600000BE10093B20107E10093B3011DC00CE1BF
:100610000093B1010AE00093B2010DE10093B30130
:1006200013C00CE10093B1010EE10093B20109E1A6
:100630000093B30109C000E10093B10100E1009310
:10064000B20100E10093B3010091EB01802F009112
:10065000D101073061F4E2EDF1E0008101FF07C054
:1006600000E10093B60100E10093B7010CC0082F30
:10067000007305950595059505950093B601082F1E
:100680000F700093B7010091EC01802F0091D10110
:10069000083061F4E2EDF1E0008101FF07C000E104
:1006A0000093B90100E10093BA010CC0082F00715A
:1006B00005950595059505950093B901082F0F70CF
:1006C0000093BA010091ED01802F0091D101093012
:1006D00061F4E2EDF1E0008101FF07C000E1009369
:1006E000BE0100E10093BF0109C0082F02950F7001
:1006F0000093BE01082F0F700093BF010091EE011F
:10070000802F0091EF01802F843608F080E0A0E078
:100710008A3018F08A50A395FBCF0091D1010130A7
:1007200061F4E2EDF1E0008101FF07C000E1009318
:10073000890100E10093880104C080938901A0939E
:1007400088010091F001802F813010F08A3008F08C
:1007500081E00091D101023049F4E2EDF1E0008145
:1007600001FF04C000E100938B0102C080938B0164
:10077000E1E0F2E0008111810F7000938D010091A2
:10078000D401005051F00A95C1F00A9531F10A9553
:10079000A1F10A9509F441C050C001E1009395010F
:1007A00000E0009396010FE0009397010FE00093A3
:1007B000980101E1009399014FC001E10093950177
:1007C0000CE1009396010DE10093970100E0009386
:1007D00098010AE1009399013FC00CE10093950153
:1007E0000DE1009396010AE0009397010BE100935D
:1007F00098010DE1009399012FC001E1009395014B
:1008000006E1009396010EE0009397010AE0009341
:1008100098010DE1009399011FC00EE0009395012E
:100820000BE1009396010BE10093970100E0009328
:1008300098010BE1009399010FC001E1009395012C
:1008400001E10093960101E10093970101E100931A
:10085000980101E100939901E6EDF1E00081118139
:1008600022813381012B022B032B51F4EAEDF1E0BD
:100870000081118122813381012B022B032B01F195
:1008800044E650E060E070E0E6EDF1E000811181C7
:10089000228133810E94ED0CE6EDF1E0408151812F
:1008A00062817381EAEDF1E0008011802280338063
:1008B000400D511D621D731D0E940D0D280102C0C7
:1008C00044245524E6EDF1E0008111812281338139
:1008D000EAEDF1E04081518162817381040F151FBF
:1008E000261F371F013040E0140741E0240740E095
:1008F000340708F44AC0652C660C6608762CE6EDD1
:10090000F1E0008111812281338140165106620697
:10091000730690F4652C660C6608762CE6EDF1E023
:1009200000811181228133810419150926093709B3
:10093000008311832283338304E610E00419150930
:10094000212F220F220B322FEAEDF1E0408151815D
:10095000628173810417150726073707B0F404E690
:1009600010E004191509212F220F220B322FEAED76
:10097000F1E04081518162817381401B510B620B18
:10098000730B4083518362837383A0E00AE04016B7
:1009900000E0500634F006EF400E0FEF501EA39516
:1009A000F5CFA093A001042D0093A1010091D501E2
:1009B00010E02801042D007F02950F700093A40120
:1009C000042D0F700093A50104B70F700093A601CA
:1009D000E8E00C94870D3DD000E215B1102715B961
:1009E000E2EDF1E000810395008300E00093F30164
:1009F0000091D101002319F00E941D0602C00E943F
:100A0000E5050091D001002311F00E944A060E94E2
:100A1000A5060E94FE090091C001002331F0E0EC20
:100A2000F1E000810A95008303C000E00093D1014A
:100A30000E941D010E94AE000E941D07A8950FE3B1
:100A40001DE023E0015010402040E1F700C000000D
:100A5000C3CF07E204B907E005B900EC0AB90FEC0F
:100A60000BB903E007B900E008B900E005BF00E0FA
:100A70000093800001E00093810000E00093820079
:100A800002E400937C000FEC00937A0000E00093F6
:100A90007B000CEC00937E00A8950091600008613B
:100AA000009360000FE100936000789400E40093ED
:100AB000B80002E00093B9000EEF0093BA0000E026
:100AC0000093BD0000E00093BC005E9800E000933E
:100AD000CF010091CF01073180F410E02091CF01C8
:100AE00030E0F901E35FFE4F04910E940001EFEC5A
:100AF000F1E0008103950083ECCF0FE31DE023E0DC
:100B0000015010402040E1F700C0000000E00093D9
:100B1000CF010091CF01083080F410E02091CF0187
:100B200030E0F901EC5DFE4F04910E940001EFEC12
:100B3000F1E0008103950083ECCF5E9A0895FA936B
:100B4000EA934A933A932A931A930A934FB70FE082
:100B500000937A000091780010917900980100913B
:100B6000DE0110E0000F111FF801E152FE4F20835B
:100B70003183EEEDF1E0008103950083EEEDF1E0CD
:100B800000810370008300917C00007F00937C0053
:100B90000091DE0110E0F801E953FE4F0081109151
:100BA0007C00102B10937C000FEC00937A004FBF59
:100BB00009911991299139914991E991F9911895E2
:100BC0000A930FB70FBF099118959A938A9305EE70
:100BD0000093BC00A6D000ED0093BB0005EC009391
:100BE000BC009FD000E00093BB0005EC0093BC006C
:100BF00098D005EE0093BC0094D001ED0093BB00AB
:100C000005EC0093BC008DD080E08C3068F405ECDE
:100C10000093BC0086D00091BB0090E0FC01E9513C
:100C2000FE4F00838395F1CF05ED0093BC0000E0FB
:100C30000093BC008991999108959A938A9305EE47
:100C40000093BC006ED000ED0093BB0005EC009358
:100C5000BC0067D000E00093BB0005EC0093BC0033
:100C600060D080E08C3068F490E0FC01E951FE4FE8
:100C700000810093BB0005EC0093BC0052D083952B
:100C8000F1CF05ED0093BC0000E00093BC0089911A
:100C9000999108958A9305EE0093BC0042D000ED2F
:100CA0000093BB0005EC0093BC003BD000E0009338
:100CB000BB0005EC0093BC0034D005EE0093BC00F3
:100CC00030D001ED0093BB0005EC0093BC0029D0AF
:100CD00005EC0093BC0025D00091BB00802F05EEF1
:100CE0000093BC001ED000ED0093BB0005EC009308
:100CF000BC0017D000E00093BB0005EC0093BC00E3
:100D000010D0082F0F770093BB0005EC0093BC00B8
:100D100008D005ED0093BC0000E00093BC00899171
:100D200008959C0188E893E10091BC00102F17FD05
:100D30000AC0082F092B11F00197F6CFE3EFF1E07D
:100D4000008103950083C90108950091F3010023F8
:100D500021F003E00093F4010FC00091F40100239F
:100D600031F0E4EFF1E000810A95008305C0E5ED84
:100D7000F1E000810D7F00830091EF011091F101FE
:100D80000117E9F40091F3010023C9F40091F40183
:100D90000023A9F40091EF0110E0EDEFF1E00083F2
:100DA0001183EDEFF1E000811181EFEFF1E00083BD
:100DB0001183E5EDF1E000810D7F00830DC0EFEFC1
:100DC000F1E000811181EDEFF1E000831183E5EDA9
:100DD000F1E00081026000830091F0011091F201C6
:100DE0000117E9F40091F3010023C9F40091F40123
:100DF0000023A9F40091F00110E0EBECF1E0008396
:100E00001183EBECF1E000811181EDECF1E0008366
:100E10001183E5EDF1E000810D7F00830895EDEC95
:100E2000F1E000811181EBECF1E000831183E5ED4D
:100E3000F1E00081026000830895489B04C000E057
:100E40000093030250C000910302002329F0009197
:100E50000302013009F042C000910302002321F097
:100E60000091D101002349F45E9807EA11E6015090
:100E70001040E9F700C000005E9A009103020023D1
:100E800039F40091D101002319F404E10093030225
:100E900000910302002399F40091D101002379F01D
:100EA000E1EDF1E00081039500830091D1010A306A
:100EB00018F001E00093D10101E0009303020091DA
:100EC0000302013039F40091D101002319F401E04B
:100ED0000093D1010FEF0093C00105C0E3E0F2E001
:100EE00000810A950083499B04C000E0009304023E
:100EF0003FC100910402002329F000910402013057
:100F000009F031C100910402002319F40AE00093B2
:100F100004025E9807EA11E601501040E9F700C0AC
:100F200000005E9A0091D101ECE2F1E00C94390DE1
:100F3000E7EEF1E00085039500870091EF010436AC
:100F400018F003E60093EF010091EF010093F10127
:100F500006C1E7EEF1E00185039501870091F001FC
:100F60000A3018F009E00093F0010091F0010093BD
:100F7000F201F5C0E7EEF1E0028103950283E7EEAE
:100F8000F1E002810F7302830091E9010F700A30D2
:100F900078F00091E901007F003251F0E7EEF1E0D6
:100FA0000281007F0283E7EEF1E00281005F0283AD
:100FB0000091E9010F73043208F4D1C000E00093FE
:100FC000E901CDC0E7EEF1E0018103950183E7EE91
:100FD000F1E001810F7701830091E8010F700A3081
:100FE00078F00091E801007F003651F0E7EEF1E083
:100FF0000181007F0183E7EEF1E00181005F018361
:101000000091E8010F770A3508F4A9C000E00093C9
:10101000E801A5C0E7EEF1E0008103950083E7EE6B
:10102000F1E000810F7700830091E7010F700A3033
:1010300078F00091E701007F003651F0E7EEF1E033
:101040000081007F0083E7EEF1E00081005F008314
:101050000091E7010F770A3508F481C000E00093A2
:10106000E7017DC0E7EEF1E0038103950383009182
:10107000EA01083008F473C007E00093EA016FC08A
:10108000E7EEF1E0048103950483E7EEF1E00481EB
:101090000F7304830091EB010F700A3078F0009118
:1010A000EB01007F003351F0E7EEF1E00481007FB7
:1010B0000483E7EEF1E00481005F04830091EB011B
:1010C0000F73023308F44BC001E00093EB0147C0FB
:1010D000E7EEF1E0058103950583E7EEF1E0058198
:1010E0000F7105830091EC010F700A3078F00091C8
:1010F000EC01007F003151F0E7EEF1E00581007F67
:101100000583E7EEF1E00581005F05830091EC01C6
:101110000F71033120F101E00093EC0120C0E7EEF4
:10112000F1E00681039506830091ED010F700A300E
:1011300078F00091ED01007F003951F0E7EEF1E029
:101140000681007F0683E7EEF1E00681005F0683FB
:101150000091ED010A3918F000E00093ED010FEF66
:101160000093C00105C0E4E0F2E000810A9500832D
:101170004B9B04C000E00093050223C100910502CF
:10118000002329F000910502013009F015C10091FA
:101190000502002319F40AE0009305025E9807EAAD
:1011A00011E601501040E9F700C000005E9A00917E
:1011B000D101E4E4F1E00C94390DE7EEF1E00085B3
:1011C0000A9500870091EF010F3F19F400E00093AA
:1011D000EF010091EF010093F101EAC0E7EEF1E0C9
:1011E00001850A9501870091F001002319F401E0BF
:1011F0000093F0010091F0010093F201D9C0E7EEF5
:10120000F1E002810A950283E7EEF1E002810F73BB
:1012100002830091E9010F700A3008F4C9C00091FF
:10122000E9010073003321F403E20093E901C0C037
:10123000E7EEF1E0028100730283E7EEF1E0028164
:1012400009600283B5C0E7EEF1E001810A950183F0
:10125000E7EEF1E001810F7701830091E8010F7063
:101260000A3008F4A5C00091E8010077013520F0AC
:1012700009E50093E8019CC0E7EEF1E00181007709
:101280000183E7EEF1E001810960018391C0E7EE9F
:10129000F1E000810A950083E7EEF1E000810F772D
:1012A00000830091E7010F700A3008F481C00091BB
:1012B000E7010077013520F009E50093E70178C0E8
:1012C000E7EEF1E0008100770083E7EEF1E00081D6
:1012D000096000836DC0E7EEF1E003810A950383A6
:1012E0000091EA01002309F063C001E00093EA01E4
:1012F0005FC0E7EEF1E004810A950483E7EEF1E0D8
:1013000004810F7304830091EB010F700A3050F0D9
:10131000E7EEF1E0048100730483E7EEF1E004817D
:10132000096004830091EB01002309F041C001E34F
:101330000093EB013DC0E7EEF1E005810A950583DE
:10134000E7EEF1E005810F7105830091EC010F706C
:101350000A3050F0E7EEF1E0058100710583E7EE19
:10136000F1E00581096005830091EC01002301F59E
:1013700002E10093EC011CC0E7EEF1E006810A9562
:1013800006830091ED010F700A3090F00091ED019D
:101390000A3920F009E90093ED010AC0E7EEF1E017
:1013A0000681007F0683E7EEF1E00681096006838F
:1013B0000FEF0093C00105C0E5E0F2E000810A955F
:1013C00000834A9B04C000E0009306020895009148
:1013D0000602002391F401E0009306025E9807EAFA
:1013E00011E601501040E9F700C000005E9A00E0ED
:1013F0000093D1010FEF0093C00108950E94820D68
:1014000080E08430C0F4082F10E0000F111FF801B5
:10141000E152FE4FA081B181B595A795A151B14090
:10142000082F10E0000F111FF801EB50FE4FA083B2
:10143000B1838395E6CFE3EDF1E0008103FF4EC079
:10144000E5EFF1E0A681B7811A970CF040C00AE001
:10145000E5EFF1E026813781021B802F03E010E0E9
:10146000E1E0F2E0408151810E94DF0CE82FF0E0E2
:1014700033970E171F07A4F4E1E0F2E00081118119
:101480000F5F1F4F00831183E1E0F2E0A081B18183
:101490001A9734F009E010E0E1E0F2E000831183F4
:1014A000A82FB0E0139603E010E0E1E0F2E0408105
:1014B00051810E94DF0CA017B107B4F4E1E0F2E023
:1014C0000081118101501040008311830DC000E0A4
:1014D00010E0E1E0F2E00083118306C000E010E0DC
:1014E000E1E0F2E000831183E1E0F2E000811181AC
:1014F000EDEFF1E020813181200F311F2083318316
:101500000091D3010370033031F4E5EDF1E0008187
:101510000F7B008305C0E5EDF1E0008100640083EE
:10152000E5EFF1E0A081B181159734F4E5EDF1E04C
:1015300000810061008305C0E5EDF1E000810F7ED0
:101540000083E5EFF1E002811381023420E012070D
:1015500034F0E5EDF1E000810860008305C0E5EDC1
:10156000F1E00081077F00830091D401005061F019
:101570000A9549F10A9509F4C1C00A9509F435C1E3
:101580000A9509F4E0C1E2C1419840980091D50163
:101590000275002351F40091C101002331F401E0F0
:1015A0000093D4010AEF0093C1014D9B06C0E5ED05
:1015B000F1E0008100680083C9C1E5EDF1E0008140
:1015C0000F770083C3C1409A4198EAEDF1E00081B2
:1015D0001181228133810F5F1F4F2F4F3F4F0083B7
:1015E0001183228333830091D5010275002319F002
:1015F00000E00093D401E5EFF1E000811181EBEC14
:10160000F1E020813181020F131FEDEFF1E0208125
:101610003181021713077CF40091C101002359F4B2
:10162000E5EDF1E0008103FD06C002E00093D40186
:101630000AEF0093C101EDEFF1E000811181EBECC5
:10164000F1E020813181021B130BE5EFF1E02081F5
:1016500031810217130754F5E5EFF1E000811181A4
:10166000EDEFF1E020813181EBECF1E0408151813F
:10167000240F351F02171307CCF40091C10100237A
:10168000A9F4E3ECF1E00081118122813381012B87
:10169000022B032B59F4E5EDF1E0008103FD06C0B8
:1016A00002E00093D4010AEF0093C1014D9B06C0F4
:1016B000E5EDF1E000810068008305C0E5EDF1E0B3
:1016C00000810F770083E5EFF1E0A281B381E5EFC0
:1016D000F1E000811181A01BB10B99974CF0E5ED71
:1016E000F1E000810062008304E00093D4012EC188
:1016F000E5EDF1E000810F7D008328C1409A419A19
:10170000E5EDF1E0008103FF06C001E00093D401A4
:101710000AEF0093C101E5EFF1E0A281B381E5EFAB
:10172000F1E000811181A01BB10B1597E4F4009149
:10173000C101002391F401E00093D4010AEF00936A
:10174000C101E2ECF1E000810A9500830091C20141
:10175000002319F404E00093D401E5EDF1E00081E9
:10176000046000830BC003E00093D4010AEF0093F0
:10177000C101E5EDF1E000810B7F00834D9B06C0C8
:10178000E5EDF1E000810F7700830CC00091C1010D
:10179000002319F404E00093D401E5EDF1E00081A9
:1017A00000680083E5EFF1E0A281B381E5EFF1E0AD
:1017B00000811181A01BB10B99974CF0E5EDF1E090
:1017C00000810062008304E00093D40105C0E5EDD0
:1017D000F1E000810F7D0083E5EDF1E0008106FF7F
:1017E000B5C004E00093D401B1C0409A419AE6ED3F
:1017F000F1E000811181228133810F5F1F4F2F4F54
:101800003F4F0083118322833383EDEFF1E00081AA
:101810001181EBECF1E020813181020F131FE5EF24
:10182000F1E020813181021713072CF0E5EDF1E0A2
:10183000008103FF10C001E00093D40100E516E42D
:1018400020E030E0E3ECF1E0008311832283338376
:101850000AEF0093C101E5EFF1E002811381023448
:1018600020E012074CF0E5EDF1E000810860008314
:1018700004E00093D40105C0E5EDF1E00081077FAD
:101880000083E5EFF1E0A281B381E5EFF1E00081B3
:101890001181A01BB10B99974CF0E5EDF1E00081AF
:1018A0000062008304E00093D40105C0E5EDF1E09F
:1018B00000810F7D0083E5EFF1E0A281B381E5EFC8
:1018C000F1E000811181A01BB10B1597D4F40091B8
:1018D000C101002381F401E00093D40100E516E486
:1018E00020E030E0E3ECF1E00083118322833383D6
:1018F0000AEF0093C101E5EDF1E000810160008392
:1019000005C0E5EDF1E000810E7F00834D9B06C030
:10191000E5EDF1E000810F7700830CC00091C1017B
:10192000002319F404E00093D401E5EDF1E0008117
:1019300000680083E5EDF1E0008106FF07C004E0E8
:101940000093D40103C0409A41985E980091C10170
:10195000002329F0E1ECF1E000810A950083E3EC3B
:10196000F1E00081118122813381012B022B032BB5
:1019700071F0E3ECF1E000811181228133810150AB
:101980001040204030400083118322833383E4E001
:101990000C948B0D00008895FECF0FE30DBF01E086
:1019A0000EBFC0E2D1E00E94940D002311F00E940E
:1019B000A40D0E94EB040E94CA0C0C94CA0C149F44
:1019C000102D059F100D049F002D110D08954A95AF
:1019D0001AF0000F111FFBCF08952224349F302DE1
:1019E000259F300D169F300D079F300D249F202D11
:1019F000310D159F200D311D069F200D311D149FA7
:101A0000102D210D321D059F100D211D321D049F2B
:101A1000002D110D221D321D0895002411241001E6
:101A2000E0E2EA9592F0001F111F221F331F001CF5
:101A3000111C221C331C041615062606370688F3D3
:101A4000041A150A260A370AECCF001F111F221F9D
:101A5000331FA001B1010095109520953095089590
:101A60007591659155914591159011FA2590359094
:101A70000895F9DF041B10E003C0F4DF041B150B0D
:101A800020E030E005C0ECDF041B150B260B370B04
:101A9000B8F010FC17C045910590E00FF11F041736
:101AA000100540E02407340758F436F4049100246C
:101AB000F101E01BF0090994E00FF11F259035902A
:101AC000F101099411F4D6F7F1CF31960EF0319669
:101AD00050E060E070E045914B3F48F089F34F3FA4
:101AE00029F04E3F11F07591659155914591041B78
:101AF000150B260B370B39F318F3E7CF7A926A925E
:101B00005A924A92BA93AA939A938A9308957F809D
:101B10006E805D804C80BB81AA8199818881F0E0D4
:101B2000EC0FFD1FEF01089501E0089520E006D0BD
:101B3000E9F70895259102D0E9F708952D93015012
:101B40001040202F212B08958CE79BE1FC0105918B
:101B50001491FC013296A591B491FC013496259123
:101B60003491422F432B19F0F901E4DF01C0DEDF8D
:101B700006961BE18838910748F308958F004001CD
:101B8000881B3800CF01000017191A1E1D101010F5
:101B90001D1210101010130C001E1D1A1E1D101007
:101BA0001D1210101010130C17190D00001B10102F
:101BB0001D1210101010130C001E1D0D00001B1024
:101BC0001D1210101010130C1C0E1D101D121010E1
:101BD000101014102010130C1111111111111111EA
:101BE00011111111111111111010151010101010E8
:101BF0000000120000120000101010101010000061
:101C00001100001102000000FFFA0350460000021C
:071C100003070601000100BB
:0400000300000000F9
:00000001FF
