:020000020000FC
:100000000C94AB0C1895189518951895189518958B
:100010001895189518951895189518951895189578
:100020001895189518951895189518951895189568
:100030001895189518951895189518951895189558
:100040001895189518951895189518951895189548
:10005000189518950C949605189518951895189557
:100060000C94D705189518953E4141413E44427F76
:10007000404042615149462141454B311814127F9D
:100080001027454545393C4A494930017109050366
:100090003649494936064949291E7E1111117E7F8C
:1000A000494949363E414141227F4141413E7F49D4
:1000B0004949497F090909090000000000080808AA
:1000C00008080000363600000007050724243F24F6
:1000D0002423130864627F0808087F00417F4100E1
:1000E0007F0618067F7F0608307F7F090909067F93
:1000F00009091966264949493201017F01013F403A
:1001000040403F3F403E403F08083E0808AED59083
:10011000A83FD300408D14A1C8DA1281B0D922DBE8
:1001200030A4A6AF200021007F2200070100A6080E
:1001300009008F07A007B107D90701082908370868
:100140005F0886080100CF090900D408E508F60811
:100150001A093E09620970099209B3090E945E0DED
:1001600080E0883050F410E0282F30E0F901EC5D99
:10017000FE4F049145D08395F4CF90E09830E8F598
:1001800080E08038C0F5082F0770A02FA23070F1F2
:10019000A73060F50091C001002341F111E0B12FBB
:1001A00006E610E02A2F30E0020F131F2801492F26
:1001B00050E000E110E00E94BD0CE0E4F1E0E00F4F
:1001C000F11F082F06950695069510E0E00FF11F28
:1001D000408150E005E010E00E94BD0CF201E00F0C
:1001E000F11F0491000F1B2F0BD003C011E000E0A2
:1001F00007D08395C6CF9395C1CFE6E00C94670DE9
:10020000302F512F552311F02A9A01C02A985F9858
:1002100027E02F3F81F02898422F01E010E00E9454
:10022000C50C132F1023112311F0299A01C029980E
:10023000289A2A95EECF5F9A08950E945C0DA0E05F
:10024000A43008F006C10A2F10E0000F111FF801BA
:10025000EA50FE4F00811181280104E6401600E0BB
:1002600050060CF067C008ED40160FEF50060CF476
:1002700061C093E14A2F50E000E110E00E94BD0C04
:10028000F801E05CFE4F96879CE04A2F50E000E1C9
:1002900010E00E94BD0CF801E05CFE4F97874A2FEA
:1002A00001E010E00E94C50CE4EDF1E01081102B9C
:1002B0001083552092F44094509401E0400E00E0E9
:1002C000501E91E14A2F50E000E110E00E94BD0C69
:1002D000F801E05CFE4F93870BC090E14A2F50E09D
:1002E00000E110E00E94BD0CF801E05CFE4F938736
:1002F00080E00AE0401600E0500634F006EF400EC1
:100300000FEF501E8395F5CF4A2F50E000E110E02B
:100310000E94BD0CF801E05CFE4F8487942D4A2FAB
:1003200050E000E110E00E94BD0CF801E05CFE4FDF
:1003300095878DC04A2F01E010E00E94C50C009502
:10034000E4EDF1E010811023108390E14A2F50E09A
:1003500000E110E00E94BD0CF801E05CFE4F9687C2
:1003600090E14A2F50E000E110E00E94BD0CF8013E
:10037000E05CFE4F978704E6401600E05006B4F0BC
:1003800090E04A2F50E000E110E00E94BD0CF8011F
:10039000E05CFE4F948796E14A2F50E000E110E0C8
:1003A0000E94BD0CF801E05CFE4F95870DED4016F4
:1003B00000E05006B4F099E14A2F50E000E110E06F
:1003C0000E94BD0CF801E05CFE4F94879CE04A2F30
:1003D00050E000E110E00E94BD0CF801E05CFE4F2F
:1003E000958708ED40160FEF5006B4F490E04A2FC1
:1003F00050E000E110E00E94BD0CF801E05CFE4F0F
:1004000094879CE04A2F50E000E110E00E94BD0C70
:10041000F801E05CFE4F958703E540160FEF5006AC
:10042000B4F49CE14A2F50E000E110E00E94BD0CC2
:10043000F801E05CFE4F94879CE04A2F50E000E119
:1004400010E00E94BD0CF801E05CFE4F9587A3957B
:10045000F7CE0091E801802F0091D201053061F4C0
:10046000E3EDF1E0008101FF07C000E10093AE0180
:1004700000E10093AF010CC0082F007705950595AA
:10048000059505950093AE01082F0F700093AF01FD
:1004900087FB26F401E00093D10103C000E0009344
:1004A000D1010091E901802F0091D201043061F463
:1004B000E3EDF1E0008101FF07C000E10093AB0133
:1004C00000E10093AC010CC0082F0077059505955D
:1004D000059505950093AB01082F0F700093AC01B3
:1004E0000091EA01802F0091D201033091F4E3EDF5
:1004F000F1E0008101FF0DC000E10093A60100E1E1
:100500000093A70100E10093A80100E10093A90175
:1005100026C0082F0F700093A90186FBAEF4082FA8
:10052000007105950595059505950093A80108E1CD
:100530000093A70185FB26F40AE10093A6010FC0F2
:100540000AE00093A6010BC0082F02950F700093DC
:10055000A80100E10093A70100E10093A60100912A
:10056000EB01802F0091D201063079F4E3EDF1E048
:10057000008101FF0AC000E10093B10100E1009396
:10058000B20100E10093B3015FC0082F015069F090
:100590000A95A9F00A95E9F00A9529F10A9569F1F9
:1005A0000A95A9F10A95E9F146C008E10093B10165
:1005B00000E00093B20109E10093B30145C00DE1F1
:1005C0000093B1010EE10093B2010EE00093B3017C
:1005D0003BC00FE10093B1010EE00093B2010DE0CA
:1005E0000093B30131C00DE10093B10106E1009326
:1005F000B2010EE10093B30127C00FE00093B101F7
:100600000BE10093B20107E10093B3011DC00CE1BF
:100610000093B1010AE00093B2010DE10093B30130
:1006200013C00CE10093B1010EE10093B20109E1A6
:100630000093B30109C000E10093B10100E1009310
:10064000B20100E10093B3010091EC01802F009111
:10065000D201073061F4E3EDF1E0008101FF07C052
:1006600000E10093B60100E10093B7010CC0082F30
:10067000007305950595059505950093B601082F1E
:100680000F700093B7010091ED01802F0091D2010E
:10069000083061F4E3EDF1E0008101FF07C000E103
:1006A0000093B90100E10093BA010CC0082F00715A
:1006B00005950595059505950093B901082F0F70CF
:1006C0000093BA010091EE01802F0091D201093010
:1006D00061F4E3EDF1E0008101FF07C000E1009368
:1006E000BE0100E10093BF0109C0082F02950F7001
:1006F0000093BE01082F0F700093BF010091EF011E
:10070000802F0091F001802F843608F080E0A0E077
:100710008A3018F08A50A395FBCF0091D2010130A6
:1007200061F4E3EDF1E0008101FF07C000E1009317
:10073000890100E10093880104C080938901A0939E
:1007400088010091F101802F813010F08A3008F08B
:1007500081E00091D201023049F4E3EDF1E0008143
:1007600001FF04C000E100938B0102C080938B0164
:10077000E2E0F2E0008111810F7000938D010091A1
:10078000D501005051F00A95C1F00A9531F10A9552
:10079000A1F10A9509F441C050C001E1009395010F
:1007A00000E0009396010FE0009397010FE00093A3
:1007B000980101E1009399014FC001E10093950177
:1007C0000CE1009396010DE10093970100E0009386
:1007D00098010AE1009399013FC00CE10093950153
:1007E0000DE1009396010AE0009397010BE100935D
:1007F00098010DE1009399012FC001E1009395014B
:1008000006E1009396010EE0009397010AE0009341
:1008100098010DE1009399011FC00EE0009395012E
:100820000BE1009396010BE10093970100E0009328
:1008300098010BE1009399010FC001E1009395012C
:1008400001E10093960101E10093970101E100931A
:10085000980101E100939901E7EDF1E00081118138
:1008600022813381012B022B032B51F4EBEDF1E0BC
:100870000081118122813381012B022B032B01F195
:1008800044E650E060E070E0E7EDF1E000811181C6
:10089000228133810E94CB0CE7EDF1E04081518150
:1008A00062817381EBEDF1E0008011802280338062
:1008B000400D511D621D731D0E94EB0C280102C0EA
:1008C00044245524E7EDF1E0008111812281338138
:1008D000EBEDF1E04081518162817381040F151FBE
:1008E000261F371F013040E0140741E0240740E095
:1008F000340708F44AC0652C660C6608762CE7EDD0
:10090000F1E0008111812281338140165106620697
:10091000730690F4652C660C6608762CE7EDF1E022
:1009200000811181228133810419150926093709B3
:10093000008311832283338304E610E00419150930
:10094000212F220F220B322FEBEDF1E0408151815C
:10095000628173810417150726073707B0F404E690
:1009600010E004191509212F220F220B322FEBED75
:10097000F1E04081518162817381401B510B620B18
:10098000730B4083518362837383A0E00AE04016B7
:1009900000E0500634F006EF400E0FEF501EA39516
:1009A000F5CFA093A001042D0093A1010091D601E1
:1009B00010E02801042D007F02950F700093A40120
:1009C000042D0F700093A50104B70F700093A601CA
:1009D000E8E00C94650D3DD000E215B1102715B983
:1009E000E3EDF1E000810395008300E00093F40162
:1009F0000091D201002319F00E94140602C00E9447
:100A0000DC050091D101002311F00E9441060E94F3
:100A10009C060E94F5090091C001002331F0E0EC32
:100A2000F1E000810A95008303C000E00093D20149
:100A30000E941D010E94AE000E941407A8950FE7B6
:100A40001AE126E0015010402040E1F700C000000C
:100A5000C3CF07E204B907E005B900EC0AB90FEC0F
:100A60000BB903E007B900E008B900E005BF02E4F4
:100A700000937C000FEC00937A0000E000937B0071
:100A80000CEC00937E00A895009160000861009333
:100A900060000FE100936000789400E40093B800D8
:100AA00002E00093B9000EEF0093BA0000E000935B
:100AB000BD0000E00093BC005E9800E00093D00110
:100AC0000091D001073180F410E02091D00130E096
:100AD000F901E35FFE4F04910E940001E0EDF1E0B7
:100AE000008103950083ECCF0FE31DE023E001506C
:100AF00010402040E1F700C0000000E00093D0016A
:100B00000091D001083080F410E02091D00130E055
:100B1000F901EC5DFE4F04910E940001E0EDF1E06F
:100B2000008103950083ECCF5E9A0895FA93EA93CF
:100B30004A933A932A931A930A934FB70FE000937C
:100B40007A00009178001091790098010091DF01FE
:100B500010E0000F111FF801E052FE4F2083318397
:100B6000EFEDF1E0008103950083EFEDF1E000810E
:100B70000370008300917C00007F00937C00009153
:100B8000DF0110E0F801E853FE4F008110917C0076
:100B9000102B10937C000FEC00937A004FBF09914B
:100BA0001991299139914991E991F99118950A93EF
:100BB0000FB70FBF099118959A938A9305EE00938A
:100BC000BC00A6D000ED0093BB0005EC0093BC0078
:100BD0009FD000E00093BB0005EC0093BC0098D0D0
:100BE00005EE0093BC0094D001ED0093BB0005EC32
:100BF0000093BC008DD080E08C3068F405EC00934D
:100C0000BC0086D00091BB0090E0FC01E851FE4F93
:100C100000838395F1CF05ED0093BC0000E00093C5
:100C2000BC008991999108959A938A9305EE009357
:100C3000BC006ED000ED0093BB0005EC0093BC003F
:100C400067D000E00093BB0005EC0093BC0060D0CF
:100C500080E08C3068F490E0FC01E851FE4F0081A8
:100C60000093BB0005EC0093BC0052D08395F1CFFC
:100C700005ED0093BC0000E00093BC0089919991C0
:100C800008958A9305EE0093BC0042D000ED0093D6
:100C9000BB0005EC0093BC003BD000E00093BB0020
:100CA00005EC0093BC0034D005EE0093BC0030D0BE
:100CB00001ED0093BB0005EC0093BC0029D005ECCE
:100CC0000093BC0025D00091BB00802F05EE00935F
:100CD000BC001ED000ED0093BB0005EC0093BC00EF
:100CE00017D000E00093BB0005EC0093BC0010D0CF
:100CF000082F0F770093BB0005EC0093BC0008D0D1
:100D000005ED0093BC0000E00093BC0089910895BC
:100D10009C0188E893E10091BC00102F17FD0AC0E8
:100D2000082F092B11F00197F6CFE4EFF1E00081D5
:100D300003950083C90108950091F401002321F077
:100D400003E00093F5010FC00091F501002331F09D
:100D5000E5EFF1E000810A95008305C0E6EDF1E0E2
:100D600000810D7F00830091F0011091F2010117C5
:100D7000E9F40091F4010023C9F40091F501002386
:100D8000A9F40091F00110E0EEEFF1E0008311838F
:100D9000EEEFF1E000811181E0E0F2E000831183E9
:100DA000E6EDF1E000810D7F00830DC0E0E0F2E0B0
:100DB00000811181EEEFF1E000831183E6EDF1E0B7
:100DC0000081026000830091F1011091F30101178D
:100DD000E9F40091F4010023C9F40091F501002326
:100DE000A9F40091F10110E0ECECF1E00083118333
:100DF000ECECF1E000811181EEECF1E00083118375
:100E0000E6EDF1E000810D7F00830895EEECF1E066
:100E100000811181ECECF1E000831183E6EDF1E05B
:100E20000081026000830895489B04C000E00093A5
:100E3000040250C000910402002329F00091040232
:100E4000013009F042C000910402002321F000911A
:100E5000D201002349F45E9807EA11E601501040E0
:100E6000E9F700C000005E9A00910402002339F403
:100E70000091D201002319F404E1009304020091CF
:100E80000402002399F40091D201002379F0E2EDED
:100E9000F1E00081039500830091D2010A3018F03F
:100EA00001E00093D20101E00093040200910402EA
:100EB000013039F40091D201002319F401E00093CC
:100EC000D2010FEF0093C00105C0E4E0F2E0008121
:100ED0000A950083499B04C000E0009305023FC1CE
:100EE00000910502002329F000910502013009F06C
:100EF00031C100910502002319F40AE000930502B4
:100F00005E9807EA11E601501040E9F700C00000C2
:100F10005E9A0091D201ECE2F1E00C94170DE8EE3C
:100F2000F1E00085039500870091F001043618F088
:100F300003E60093F0010091F0010093F20106C175
:100F4000E8EEF1E00185039501870091F1010A3097
:100F500018F009E00093F1010091F1010093F30111
:100F6000F5C0E8EEF1E0028103950283E8EEF1E0DE
:100F700002810F7302830091EA010F700A3078F04A
:100F80000091EA01007F003251F0E8EEF1E00281C9
:100F9000007F0283E8EEF1E00281005F02830091AE
:100FA000EA010F73043208F4D1C000E00093EA01B3
:100FB000CDC0E8EEF1E0018103950183E8EEF1E0B8
:100FC00001810F7701830091E9010F700A3078F0F9
:100FD0000091E901007F003651F0E8EEF1E0018177
:100FE000007F0183E8EEF1E00181005F0183009161
:100FF000E9010F770A3508F4A9C000E00093E90180
:10100000A5C0E8EEF1E0008103950083E8EEF1E091
:1010100000810F7700830091E8010F700A3078F0AB
:101020000091E801007F003651F0E8EEF1E0008128
:10103000007F0083E8EEF1E00081005F0083009113
:10104000E8010F770A3508F481C000E00093E80159
:101050007DC0E8EEF1E00381039503830091EB018D
:10106000083008F473C007E00093EB016FC0E8EEAE
:10107000F1E0048103950483E8EEF1E004810F734D
:1010800004830091EC010F700A3078F00091EC01BC
:10109000007F003351F0E8EEF1E00481007F04832B
:1010A000E8EEF1E00481005F04830091EC010F732E
:1010B000023308F44BC001E00093EC0147C0E8EEB6
:1010C000F1E0058103950583E8EEF1E005810F71FC
:1010D00005830091ED010F700A3078F00091ED0169
:1010E000007F003151F0E8EEF1E00581007F0583DB
:1010F000E8EEF1E00581005F05830091ED010F71DD
:10110000033120F101E00093ED0120C0E8EEF1E0B1
:101110000681039506830091EE010F700A3078F086
:101120000091EE01007F003951F0E8EEF1E0068118
:10113000007F0683E8EEF1E00681005F0683009100
:10114000EE010A3918F000E00093EE010FEF009372
:10115000C00105C0E5E0F2E000810A9500834B9BE9
:1011600004C000E00093060223C1009106020023A0
:1011700029F000910602013009F015C10091060224
:10118000002319F40AE0009306025E9807EA11E6CC
:1011900001501040E9F700C000005E9A0091D201B2
:1011A000E4E4F1E00C94170DE8EEF1E000850A9517
:1011B00000870091F0010F3F19F400E00093F00167
:1011C0000091F0010093F201EAC0E8EEF1E0018540
:1011D0000A9501870091F101002319F401E00093C1
:1011E000F1010091F1010093F301D9C0E8EEF1E0C3
:1011F00002810A950283E8EEF1E002810F73028317
:101200000091EA010F700A3008F4C9C00091EA01A8
:101210000073003321F403E20093EA01C0C0E8EE5A
:10122000F1E0028100730283E8EEF1E002810960DF
:101230000283B5C0E8EEF1E001810A950183E8EE92
:10124000F1E001810F7701830091E9010F700A300D
:1012500008F4A5C00091E9010077013520F009E507
:101260000093E9019CC0E8EEF1E001810077018381
:10127000E8EEF1E001810960018391C0E8EEF1E060
:1012800000810A950083E8EEF1E000810F7700838A
:101290000091E8010F700A3008F481C00091E80164
:1012A0000077013520F009E50093E80178C0E8EE09
:1012B000F1E0008100770083E8EEF1E00081096051
:1012C00000836DC0E8EEF1E003810A95038300918D
:1012D000EB01002309F063C001E00093EB015FC064
:1012E000E8EEF1E004810A950483E8EEF1E0048180
:1012F0000F7304830091EC010F700A3050F0E8EE98
:10130000F1E0048100730483E8EEF1E004810960F8
:1013100004830091EC01002309F041C001E3009334
:10132000EC013DC0E8EEF1E005810A950583E8EEA9
:10133000F1E005810F7105830091ED010F700A3016
:1013400050F0E8EEF1E0058100710583E8EEF1E090
:101350000581096005830091ED01002301F502E19B
:101360000093ED011CC0E8EEF1E006810A950683CA
:101370000091EE010F700A3090F00091EE010A39F1
:1013800020F009E90093EE010AC0E8EEF1E00681E1
:10139000007F0683E8EEF1E00681096006830FEF27
:1013A0000093C00105C0E6E0F2E000810A950083E9
:1013B0004A9B04C000E000930702089500910702D1
:1013C000002391F401E0009307025E9807EA11E61A
:1013D00001501040E9F700C000005E9A00E0009361
:1013E000D2010FEF0093C00108950E945E0D80E0CE
:1013F0008430C0F4082F10E0000F111FF801E052F4
:10140000FE4FA081B181B595A795A151B140082F9C
:1014100010E0000F111FF801EA50FE4FA083B183C6
:101420008395E6CFE4EDF1E0008103FF4AC0E6EFEB
:10143000F1E0A681B78116970CF043C0E6EFF1E02A
:1014400046805780A5E0B0E003E010E0E2E0F2E083
:10145000408151810E94BD0CA01BB10B4A165B0656
:10146000A4F4E2E0F2E0008111810F5F1F4F0083DE
:101470001183E2E0F2E0A081B1811A9734F009E033
:1014800010E0E2E0F2E000831183A8E0B0E003E0C6
:1014900010E0E2E0F2E0408151810E94BD0CA01B0F
:1014A000B10BE6EFF1E006811781A017B1077CF4DC
:1014B000E2E0F2E0008111810150104000831183CD
:1014C00006C000E010E0E2E0F2E000831183E2E019
:1014D000F2E000811181EEEFF1E020813181200FF7
:1014E000311F208331830091D4010370033031F424
:1014F000E6EDF1E000810F7B008305C0E6EDF1E051
:10150000008100640083E6EFF1E0A081B1811597CE
:1015100034F4E6EDF1E000810061008305C0E6ED02
:10152000F1E000810F7E0083E6EFF1E0028113819C
:10153000023420E0120734F0E6EDF1E000810860AB
:10154000008305C0E6EDF1E00081077F0083009194
:10155000D501005061F00A9549F10A9509F4C1C01E
:101560000A9509F435C10A9509F4CBC1CDC141985A
:1015700040980091D6010275002351F40091C101F9
:10158000002331F401E00093D50104E10093C1018F
:101590004D9B06C0E6EDF1E0008100680083B4C118
:1015A000E6EDF1E000810F770083AEC1409A4198EB
:1015B000EBEDF1E000811181228133810F5F1F4F3C
:1015C0002F4F3F4F00831183228333830091D60135
:1015D0000275002319F000E00093D501E6EFF1E079
:1015E00000811181ECECF1E020813181020F131FA9
:1015F000EEEFF1E020813181021713077CF40091B6
:10160000C101002359F4E6EDF1E0008103FD06C0BD
:1016100002E00093D50108EC0093C101EEEFF1E088
:1016200000811181ECECF1E020813181021B130B70
:10163000E6EFF1E0208131810217130754F5E6EF60
:10164000F1E000811181EEEFF1E020813181ECECDD
:10165000F1E040815181240F351F02171307CCF4AC
:101660000091C1010023A9F4E4ECF1E000811181B3
:1016700022813381012B022B032B59F4E6EDF1E09B
:10168000008103FD06C002E00093D50108EC009341
:10169000C1014D9B06C0E6EDF1E0008100680083CA
:1016A00005C0E6EDF1E000810F770083E6EFF1E0A1
:1016B000A281B381E6EFF1E000811181A01BB10BA3
:1016C00099974CF0E6EDF1E000810062008304E0C0
:1016D0000093D50119C1E6EDF1E000810F7D008393
:1016E00013C1409A419AE6EDF1E0008103FF06C084
:1016F00001E00093D50108EC0093C101E6EFF1E0B1
:10170000A281B381E6EFF1E000811181A01BB10B52
:10171000169764F003E00093D50103E00093C20143
:10172000E6EDF1E000810B7F00831BC00091C10159
:10173000002391F401E00093D50104E10093C1017D
:10174000E2ECF1E000810A9500830091C2010023E0
:1017500019F404E00093D501E6EDF1E000810460A6
:1017600000834D9B06C0E6EDF1E000810F7700831A
:101770000CC00091C101002319F404E00093D501CD
:10178000E6EDF1E0008100680083E6EFF1E0A28180
:10179000B381E6EFF1E000811181A01BB10B9997B5
:1017A0004CF0E6EDF1E000810062008304E000937C
:1017B000D50105C0E6EDF1E000810F7D0083E6ED87
:1017C000F1E0008106FFA0C004E00093D5019CC0B9
:1017D000409A419AE7EDF1E0008111812281338145
:1017E0000F5F1F4F2F4F3F4F00831183228333839F
:1017F000EEEFF1E000811181ECECF1E0208131812C
:10180000020F131FE6EFF1E0208131810217130769
:101810002CF0E6EDF1E0008103FF10C001E0009341
:10182000D50100E516E420E030E0E4ECF1E00083CF
:1018300011832283338308EC0093C101E6EFF1E0CA
:10184000A281B381E6EFF1E000811181A01BB10B11
:1018500099974CF0E6EDF1E000810062008304E02E
:101860000093D50105C0E6EDF1E000810F7D008316
:10187000E6EFF1E0A281B381E6EFF1E000811181B2
:10188000A01BB10B1597B4F401E00093D50100E55E
:1018900016E420E030E0E4ECF1E0008311832283E1
:1018A000338304E10093C101E6EDF1E000810160C2
:1018B000008305C0E6EDF1E000810E7F00834D9BC3
:1018C00006C0E6EDF1E000810F77008311C0E3EC84
:1018D000F1E000810A9500830091C301002319F40F
:1018E00004E00093D501E6EDF1E00081006800839B
:1018F000E6EDF1E0008106FF07C004E00093D501AA
:1019000003C0409A41985E980091C101002329F0DC
:10191000E1ECF1E000810A950083E4ECF1E0008164
:10192000118122813381012B022B032B71F0E4EC16
:10193000F1E000811181228133810150104020406B
:1019400030400083118322833383E6E00C94670DDB
:1019500000008895FECF0FE30DBF01E00EBFC0E28F
:10196000D1E00E94720D002311F00E94820D0E94AE
:10197000EB040E94A80C0C94A80C149F102D059F3A
:10198000100D049F002D110D08954A951AF0000FB7
:10199000111FFBCF08952224349F302D259F300D39
:1019A000169F300D079F300D249F202D310D159F60
:1019B000200D311D069F200D311D149F102D210D6E
:1019C000321D059F100D211D321D049F002D110D8C
:1019D000221D321D0895002411241001E0E2EA9531
:1019E00092F0001F111F221F331F001C111C221C0C
:1019F000331C041615062606370688F3041A150A42
:101A0000260A370AECCF001F111F221F331FA00127
:101A1000B1010095109520953095089575916591C7
:101A200055914591159011FA259035900895F9DF5B
:101A3000041B10E003C0F4DF041B150B20E030E0B2
:101A400005C0ECDF041B150B260B370BB8F010FCA0
:101A500017C045910590E00FF11F0417100540E0F5
:101A60002407340758F436F404910024F101E01BF4
:101A7000F0090994E00FF11F25903590F1010994C8
:101A800011F4D6F7F1CF31960EF0319650E060E0C8
:101A900070E045914B3F48F089F34F3F29F04E3FAE
:101AA00011F07591659155914591041B150B260B0D
:101AB000370B39F318F3E7CF7A926A925A924A9227
:101AC000BA93AA939A938A9308957F806E805D80DB
:101AD0004C80BB81AA8199818881F0E0EC0FFD1FC9
:101AE000EF01089501E0089520E006D0E9F7089598
:101AF000259102D0E9F708952D9301501040202F31
:101B0000212B089588E39BE1FC0105911491FC01D0
:101B10003296A591B491FC01349625913491422FCF
:101B2000432B19F0F901E4DF01C0DEDF06961BE16B
:101B30008434910748F3089590004001441B380015
:101B4000D001000017191A1E1D1010101D121010C0
:101B50001010130C001E1D1A1E1D10101D12101047
:101B60001010130C17190D00001B10101D1210106F
:101B70001010130C001E1D0D00001B101D12101064
:101B80001010130C1C0E1D101D121010101014102C
:101B90002010130C1111111111111111111111112A
:101BA000111111111010151010101010000012005A
:101BB0000012000010101010101000001100001191
:101BC00002000000FF140303504600000203070652
:041BD000010001000F
:0400000300000000F9
:00000001FF
